:020000040800F2
:100000000028002079020008C9020008C90200087F
:10001000C9020008C9020008C90200080000000067
:10002000000000000000000000000000C9020008FD
:10003000C902000800000000C9020008C902000847
:10004000C9020008C9020008C9020008C902000864
:10005000C9020008C90200084D020008C9020008D0
:10006000C9020008C9020008C9020008C902000844
:10007000C9020008C9020008C9020008C902000834
:10008000C9020008C9020008C9020008C902000824
:10009000C9020008C9020008C9020008C902000814
:1000A000C9020008C9020008C9020008C902000804
:1000B000C9020008C9020008C9020008C9020008F4
:1000C000C9020008C9020008C9020008C9020008E4
:1000D000C9020008C9020008C9020008C9020008D4
:1000E000C9020008C902000800000000C902000897
:1000F000C9020008C9020008C9020008C9020008B4
:10010000C9020008C9020008C9020008C9020008A3
:10011000C9020008C9020008C9020008C902000893
:10012000C9020008C9020008C9020008C902000883
:1001300010B5054C237833B9044B13B10448AFF321
:1001400000800123237010BD00000020000000008B
:100150001403000808B5034B1BB103490348AFF370
:10016000008008BD00000000040000201403000807
:1001700080B400AF074B1B68064A43F001031360CD
:10018000044B1B68034A43F00403136000BFBD46E1
:1001900080BC70471810024080B400AF0A4B1B6847
:1001A000094A23F470031360074B1B68064A43F4A3
:1001B00000131360054B1B68044A43F004031360EB
:1001C00000BFBD4680BC70470408014000080140E4
:1001D00080B400AF034B00221A6000BFBD4680BC54
:1001E000704700BF0800014080B400AF074B1B6898
:1001F000064A43F001031360054B1B68044A43F0B1
:100200000103136000BFBD4680BC7047000401407D
:100210000804014080B400AF044B1B68034A43F05C
:100220004003136000BFBD4680BC704700E100E0A2
:1002300080B500AFFFF79CFFFFF7AEFFFFF7C8FFE9
:10024000FFF7D2FFFFF7E6FFFEE7000080B400AF44
:10025000074B1B68064A83F400531360054B1B6869
:10026000044A43F00103136000BFBD4680BC7047E1
:100270000C080140140401400D488546AFF300808E
:100280000C480D490D4A002302E0D458C4500433F1
:10029000C4188C42F9D30A4A0A4C002301E01360C7
:1002A0000432A242FBD300F011F8FFF7C1FFFEE7D2
:1002B0000028002000000020000000203403000877
:1002C000000000201C000020FEE7000070B50025A3
:1002D0000C4E0D4CA41BA410A54209D100F01AF835
:1002E00000250A4E0A4CA41BA410A54205D170BDDE
:1002F00056F8253098470135EEE756F825309847EF
:100300000135F2E72C0300082C0300082C03000839
:1003100030030008F8B500BFF8BC08BC9E46704723
:0C032000F8B500BFF8BC08BC9E46704752
:04032C00550100086F
:04033000310100088F
:040000050800027974
:00000001FF
