:100000000C942A000C9434000C9434000C943400AA
:100010000C9434000C9434000C9434000C94340090
:100020000C9434000C9434000C9434000C94340080
:100030000C9434000C9434000C9434000C94340070
:100040000C9434000C9434000C9434000C94340060
:100050000C94340011241FBECFE5D8E0DEBFCDBF25
:100060000E9442000C9455000C94000081B58E60F3
:1000700081BD81B58E7F81BD089581B5886181BDC7
:1000800011BC0895A09AC1E00E94360085B38C2768
:1000900085BB2FEF83ED90E3215080409040E1F746
:0E00A00000C000000E943D00EFCFF894FFCF9B
:00000001FF
