:100000000C942A000C9434000C9434000C943400AA
:100010000C9434000C9434000C9434000C94340090
:100020000C9434000C9434000C9434000C94340080
:100030000C9434000C9434000C9434000C94340070
:100040000C9434000C9434000C9434000C94340060
:100050000C94340011241FBECFE5D8E0DEBFCDBF25
:100060000E9436000C9451000C940000B898C09A7D
:10007000D09AD19AD29AD39A20E031E0B099FECFAB
:10008000B0990BC0932F022E01C0990F0A94EAF782
:100090008BB3892B8BBBB09BFBCF233078F72F5FC3
:0600A000EDCFF894FFCF44
:00000001FF
