:100000000C942A000C943C000C943C000C943C0092
:100010000C943C000C943C000C943C000C943C0070
:100020000C943C000C943C000C94C4000C9498007C
:100030000C943C000C943C000C943C000C943C0050
:100040000C943C000C943C000C943C000C943C0040
:100050000C943C0011241FBECFE5D8E0DEBFCDBF1D
:1000600020E0A0E6B0E001C01D92A736B207E1F79C
:100070000E9442000C94EB000C9400008BB380951E
:100080008BBB0895CF93DF9300D000D0CDB7DEB700
:100090008FEF8ABB78948EE390E00E94930088E013
:1000A000898382E08A831B828C8380EF0E94900088
:1000B000CE0101960E945D00FFCF009769F19093F9
:1000C000640080936300FC018081982F977F19F46E
:1000D00093B7892B83BFE0916300F0916400818125
:1000E000883018F493B7892B83BFE0916300F091B7
:1000F00064008381982F9D7F19F499B7892B89BF5C
:10010000E0916300F09164008281823038F499B705
:10011000892B89BF80E0089581E0089581E00895EA
:100120008CBF81E0089590936600809365000895E8
:100130001F920F920FB60F9211242F933F934F935C
:100140005F936F937F938F939F93AF93BF93EF933F
:10015000FF93809162008F5F80936200E091600066
:10016000F09161000995FF91EF91BF91AF919F913F
:100170008F917F916F915F914F913F912F910F9050
:100180000FBE0F901F9018951F920F920FB60F92EF
:1001900011242F933F934F935F936F937F938F938C
:1001A0009F93AF93BF93EF93FF93E0916500F0911E
:1001B00066000995FF91EF91BF91AF919F918F914B
:1001C0007F916F915F914F913F912F910F900FBE53
:0A01D0000F901F901895F894FFCFD0
:00000001FF
