:020000040800F2
:100000000028002031020008810200088102000857
:10001000810200088102000881020008000000003F
:100020000000000000000000000000008102000845
:10003000810200080000000081020008810200081F
:100040008102000881020008810200088102000884
:100050008102000881020008810200088102000874
:100060008102000881020008810200088102000864
:100070008102000881020008810200088102000854
:100080008102000881020008810200088102000844
:100090008102000881020008810200088102000834
:1000A0008102000881020008810200088102000824
:1000B0008102000881020008810200088102000814
:1000C0008102000881020008810200088102000804
:1000D00081020008810200088102000881020008F4
:1000E000810200088102000800000000810200086F
:1000F00081020008810200088102000881020008D4
:1001000081020008810200088102000881020008C3
:1001100081020008810200088102000881020008B3
:1001200081020008810200088102000881020008A3
:1001300010B5054C237833B9044B13B10448AFF321
:1001400000800123237010BD00000020000000008B
:10015000CC02000808B5034B1BB103490348AFF3B9
:10016000008008BD0000000004000020CC02000850
:1001700080B483B000AF294B1B68284A43F4C013F6
:100180001360264B1B68254A43F002031360244B7F
:100190001B68234A43F080731360204B1B681F4A7F
:1001A00043F4205313601D4B1B681C4A43F48063C7
:1001B00013601C4B1B681B4A43F0040313601A4B6B
:1001C0001B68194A23F470031360174B1B68164A07
:1001D00043F400131360154B1B68144A43F4005397
:1001E000136000237B6002E07B6801337B607B68E7
:1001F00041F287329342F7DD0C4B1B680B4A23F424
:100200000053136000233B6002E03B6801333B6016
:100210003B6841F287329342F7DDDCE7041002408D
:100220000010024018100240040801400C08014070
:100230000D488546AFF300800C480D490D4A002358
:1002400002E0D458C4500433C4188C42F9D30A4A8B
:100250000A4C002301E013600432A242FBD300F0F9
:1002600011F8FFF785FFFEE70028002000000020BE
:1002700000000020EC020008000000201C0000200C
:10028000FEE7000070B500250C4E0D4CA41BA41019
:10029000A54209D100F01AF800250A4E0A4CA41B09
:1002A000A410A54205D170BD56F8253098470135F8
:1002B000EEE756F8253098470135F2E7E4020008EA
:1002C000E4020008E4020008E8020008F8B500BFF4
:1002D000F8BC08BC9E467047F8B500BFF8BC08BC27
:0402E0009E4670477F
:0402E40055010008B8
:0402E80031010008D8
:0400000508000231BC
:00000001FF
