:100000000C942A000C9434000C9434000C943400AA
:100010000C9434000C9434000C9434000C94340090
:100020000C9434000C9434000C9434000C94340080
:100030000C9434000C9434000C9434000C94340070
:100040000C9434000C9434000C9434000C94340060
:100050000C94340011241FBECFE5D8E0DEBFCDBF25
:100060000E9436000C9486000C94000080E090E022
:1000700041E050E06AB39A01082E02C0220F331FFC
:100080000A94E2F7262B2ABB01968830910591F756
:1000900061E070E080E090E04BB39B01082E02C06D
:1000A000220F331F0A94E2F7242B2BBB2FEF31EEE4
:1000B00044E0215030404040E1F700C0000001968C
:1000C0008830910549F78FEF91EE24E08150904000
:1000D0002040E1F700C0000087E090E03BB3AB01B7
:1000E000082E02C0440F551F0A94E2F7242F2095D2
:1000F00023232BBB3FEF41EE24E031504040204012
:10010000E1F700C00000019748F7C4CFF894FFCF93
:00000001FF
