:020000040800F2
:1000000000280020D902000829030008290300085D
:100010002903000829030008290300080000000044
:10002000000000000000000000000000290300089C
:100030002903000800000000290300082903000824
:1000400029030008290300082903000829030008E0
:1000500029030008290300082903000829030008D0
:1000600029030008290300082903000829030008C0
:1000700029030008290300082903000829030008B0
:1000800029030008290300082903000829030008A0
:100090002903000829030008290300082903000890
:1000A0002903000829030008290300082903000880
:1000B0002903000829030008290300082903000870
:1000C0002903000829030008290300082903000860
:1000D0002903000829030008290300082903000850
:1000E0002903000829030008000000002903000874
:1000F0002903000829030008290300082903000830
:10010000290300082903000829030008290300081F
:10011000290300082903000829030008290300080F
:1001200029030008290300082903000829030008FF
:1001300010B5054C237833B9044B13B10448AFF321
:1001400000800123237010BD00000020000000008B
:100150007403000808B5034B1BB103490348AFF310
:10016000008008BD000000000400002074030008A7
:1001700080B400AF074B1B68064A43F004031360CA
:10018000044B1B68034A43F00803136000BFBD46DD
:1001900080BC70471810024080B400AF254B1B682C
:1001A000244A43F040031360224B1B68214A23F08A
:1001B000100313601F4B1B681E4A23F020031360BB
:1001C0001D4B1B681C4A43F0100313601A4B1B683D
:1001D000194A23F040031360174B1B68164A23F09B
:1001E00080031360154B1B68144A43F480031360AB
:1001F000124B1B68114A23F4801313600F4B1B68CA
:100200000E4A23F4001313600D4B1B680C4A43F491
:10021000801313600A4B1B68094A23F480031360A0
:10022000074B1B68064A23F40003136000BFBD465A
:1002300080BC704700080140000C014004080140E8
:10024000040C014080B485B000AF78600023FB60EF
:100250000BE00023BB6002E0BB680133BB60BB68FE
:10026000FE2BF9DDFB680133FB60FA687B689A427C
:10027000EFDB00BF1437BD4680BC704780B500AFD0
:10028000FFF776FFFFF788FF114B1B6803F00203AF
:10029000002B0CD10F4B1B680E4A83F00203136036
:1002A00000BF0B4B1B6803F00203002BF9D0084B77
:1002B0001B685B0B03F00103012B05D1054B1B6889
:1002C000044A83F4005313600A20FFF7BBFFDBE707
:1002D000080801400C0C01400D488546AFF3008032
:1002E0000C480D490D4A002302E0D458C450043391
:1002F000C4188C42F9D30A4A0A4C002301E0136067
:100300000432A242FBD300F011F8FFF7B7FFFEE77B
:1003100000280020000000200000002094030008B6
:10032000000000201C000020FEE7000070B5002542
:100330000C4E0D4CA41BA410A54209D100F01AF8D4
:1003400000250A4E0A4CA41BA410A54205D170BD7D
:1003500056F8253098470135EEE756F8253098478E
:100360000135F2E78C0300088C0300088C030008B9
:1003700090030008F8B500BFF8BC08BC9E46704763
:0C038000F8B500BFF8BC08BC9E467047F2
:04038C00550100080F
:04039000310100082F
:04000005080002D914
:00000001FF
